{
  "contractName": "Albums",
  "abi": [
    {
      "inputs": [],
      "payable": false,
      "stateMutability": "nonpayable",
      "type": "constructor"
    },
    {
      "constant": true,
      "inputs": [
        {
          "internalType": "uint256",
          "name": "",
          "type": "uint256"
        }
      ],
      "name": "albums",
      "outputs": [
        {
          "internalType": "string",
          "name": "idAlbum",
          "type": "string"
        },
        {
          "internalType": "string",
          "name": "name",
          "type": "string"
        },
        {
          "internalType": "string",
          "name": "artista",
          "type": "string"
        }
      ],
      "payable": false,
      "stateMutability": "view",
      "type": "function"
    },
    {
      "constant": true,
      "inputs": [],
      "name": "albumsCount",
      "outputs": [
        {
          "internalType": "uint256",
          "name": "",
          "type": "uint256"
        }
      ],
      "payable": false,
      "stateMutability": "view",
      "type": "function"
    },
    {
      "constant": false,
      "inputs": [
        {
          "internalType": "string",
          "name": "_idAlbum",
          "type": "string"
        },
        {
          "internalType": "string",
          "name": "_name",
          "type": "string"
        },
        {
          "internalType": "string",
          "name": "_artista",
          "type": "string"
        }
      ],
      "name": "addAlbum",
      "outputs": [],
      "payable": false,
      "stateMutability": "nonpayable",
      "type": "function"
    }
  ],
  "bytecode": "0x608060405234801561001057600080fd5b5061073e806100206000396000f3fe608060405234801561001057600080fd5b50600436106100415760003560e01c80630b219e4f14610046578063cfb0a6a814610064578063ea5df0591461024d575b600080fd5b61004e6103cc565b6040518082815260200191505060405180910390f35b61024b6004803603606081101561007a57600080fd5b810190808035906020019064010000000081111561009757600080fd5b8201836020820111156100a957600080fd5b803590602001918460018302840111640100000000831117156100cb57600080fd5b91908080601f016020809104026020016040519081016040528093929190818152602001838380828437600081840152601f19601f8201169050808301925050505050505091929192908035906020019064010000000081111561012e57600080fd5b82018360208201111561014057600080fd5b8035906020019184600183028401116401000000008311171561016257600080fd5b91908080601f016020809104026020016040519081016040528093929190818152602001838380828437600081840152601f19601f820116905080830192505050505050509192919290803590602001906401000000008111156101c557600080fd5b8201836020820111156101d757600080fd5b803590602001918460018302840111640100000000831117156101f957600080fd5b91908080601f016020809104026020016040519081016040528093929190818152602001838380828437600081840152601f19601f8201169050808301925050505050505091929192905050506103d2565b005b6102796004803603602081101561026357600080fd5b8101908080359060200190929190505050610472565b60405180806020018060200180602001848103845287818151815260200191508051906020019080838360005b838110156102c15780820151818401526020810190506102a6565b50505050905090810190601f1680156102ee5780820380516001836020036101000a031916815260200191505b50848103835286818151815260200191508051906020019080838360005b8381101561032757808201518184015260208101905061030c565b50505050905090810190601f1680156103545780820380516001836020036101000a031916815260200191505b50848103825285818151815260200191508051906020019080838360005b8381101561038d578082015181840152602081019050610372565b50505050905090810190601f1680156103ba5780820380516001836020036101000a031916815260200191505b50965050505050505060405180910390f35b60015481565b6001600081548092919060010191905055506040518060600160405280848152602001838152602001828152506000806001548152602001908152602001600020600082015181600001908051906020019061042f929190610664565b50602082015181600101908051906020019061044c929190610664565b506040820151816002019080519060200190610469929190610664565b50905050505050565b6000602052806000526040600020600091509050806000018054600181600116156101000203166002900480601f01602080910402602001604051908101604052809291908181526020018280546001816001161561010002031660029004801561051e5780601f106104f35761010080835404028352916020019161051e565b820191906000526020600020905b81548152906001019060200180831161050157829003601f168201915b505050505090806001018054600181600116156101000203166002900480601f0160208091040260200160405190810160405280929190818152602001828054600181600116156101000203166002900480156105bc5780601f10610591576101008083540402835291602001916105bc565b820191906000526020600020905b81548152906001019060200180831161059f57829003601f168201915b505050505090806002018054600181600116156101000203166002900480601f01602080910402602001604051908101604052809291908181526020018280546001816001161561010002031660029004801561065a5780601f1061062f5761010080835404028352916020019161065a565b820191906000526020600020905b81548152906001019060200180831161063d57829003601f168201915b5050505050905083565b828054600181600116156101000203166002900490600052602060002090601f016020900481019282601f106106a557805160ff19168380011785556106d3565b828001600101855582156106d3579182015b828111156106d25782518255916020019190600101906106b7565b5b5090506106e091906106e4565b5090565b61070691905b808211156107025760008160009055506001016106ea565b5090565b9056fea265627a7a723158200805df72b0c0474b6c36e22b5a9030607ccb24f54cb58d4e79f463573136250864736f6c63430005100032",
  "source": "// SPDX-License-Identifier: MIT\r\npragma solidity >=0.4.22 <0.9.0;\r\n\r\ncontract Albums {\r\n    struct Album {\r\n        string idAlbum;\r\n        string name;\r\n        string artista;\r\n    }\r\n\r\n    // Constructor\r\n    constructor() public {}\r\n\r\n    //Mapping to fetch songs\r\n    mapping(uint256 => Album) public albums;\r\n\r\n    //Store Song Count\r\n    uint256 public albumsCount;\r\n\r\n    function addAlbum(\r\n        string memory _idAlbum,\r\n        string memory _name,\r\n        string memory _artista\r\n    ) public {\r\n        albumsCount++;\r\n        albums[albumsCount] = Album(_idAlbum, _name, _artista);\r\n    }\r\n}\r\n",
  "sourcePath": "C:/Users/jaram/Desktop/CrosleyMusic/CrosleyMusic/crosleymusic/blockchain/contracts/Albums.sol",
  "compiler": {
    "name": "solc",
    "version": "0.5.16+commit.9c3226ce.Emscripten.clang"
  },
  "schemaVersion": "3.3.3",
  "updatedAt": "2020-12-21T22:41:39.515Z",
  "devdoc": {
    "methods": {}
  },
  "userdoc": {
    "methods": {}
  }
}